:100000000C9435000C945D000C945D000C945D0024
:100010000C945D000C945D000C945D000C945D00EC
:100020000C945D000C945D000C945D000C945D00DC
:100030000C945D000C945D000C945D000C945D00CC
:100040000C94E0000C945D000C94D2010C945D00C3
:100050000C945D000C945D000C945D000C945D00AC
:100060000C945D000C945D00BF0311241FBECFEF04
:10007000D4E0DEBFCDBF11E0A0E0B1E0EAEAF1E1FB
:1000800002C005900D92A435B107D9F711E0A4E59F
:10009000B1E001C01D92A43FB107E1F710E0CAE64C
:1000A000D0E004C02297FE010E94CF08C836D107D5
:1000B000C9F70E94D9000C94D3080C94000008954D
:1000C00040913C0150913D01662757FD6095762F88
:1000D00081EE91E020E030E00E946B0581EE91E03E
:1000E00060E071E00E943E0460913C0170913D012E
:1000F00081EE91E00E94500581EE91E068E071E0B0
:100100000E943E0440913C0150913D01662757FDFD
:100110006095762F81EE91E020E130E00E946B0542
:1001200081EE91E060E171E00E943E0440913C016B
:1001300050913D01662757FD6095762F81EE91E045
:1001400028E030E00E946B0581EE91E068E171E00B
:100150000E943E0440913C0150913D01662757FDAD
:100160006095762F81EE91E022E030E00E947B05E1
:1001700080913C0190913D018E37910509F4FFCFAC
:10018000019690933D0180933C010895CF93DF93B6
:10019000C1EED1E0CE0140E855E260E070E00E949F
:1001A0007002CE0160E271E00E945E04DF91CF91A7
:1001B00008950E9498010E94C6000E946000FDCF31
:1001C0001F920F920FB60F9211242F933F938F938C
:1001D0009F93AF93BF938091580190915901A09143
:1001E0005A01B0915B0130915C010196A11DB11DD6
:1001F000232F2D5F2D3720F02D570196A11DB11D06
:1002000020935C018093580190935901A0935A0167
:10021000B0935B018091540190915501A0915601DA
:10022000B09157010196A11DB11D80935401909387
:100230005501A0935601B0935701BF91AF919F9183
:100240008F913F912F910F900FBE0F901F90189597
:100250008FB7F894209158013091590140915A017B
:1002600050915B018FBFB901CA0108956FB7F8942F
:1002700086B590E0A0E0B0E0A89B08C00097A1057B
:10028000B10521F480E091E0A0E0B0E020915401BC
:100290003091550140915601509157016FBF542F35
:1002A000432F322F2227280F391F4A1F5B1F82E05E
:1002B000220F331F441F551F8A95D1F7B901CA0178
:1002C0000895EF92FF920F931F937B018C018FB7DC
:1002D000F894209158013091590140915A01509160
:1002E0005B018FBF6FB7F8948091580190915901CD
:1002F000A0915A01B0915B016FBF821B930BA40BBD
:10030000B50BE816F9060A071B0760F71F910F9156
:10031000FF90EF900895019751F0880F991F880F73
:10032000991F02972FB7F8940197F1F72FBF0895FF
:10033000789484B5826084BD84B5816084BD85B5C0
:10034000826085BD85B5816085BDEEE6F0E0808187
:1003500081608083E1E8F0E0808182608083808139
:1003600081608083E0E8F0E0808181608083E1EB60
:10037000F0E0808184608083E0EBF0E08081816048
:100380008083EAE7F0E080818460808380818260FE
:1003900080838081816080838081806880831092E7
:1003A000C10008951F920F920FB60F9211242F9340
:1003B0003F934F935F936F937F938F939F93AF93ED
:1003C000BF93EF93FF934091C6002091DD013091E0
:1003D000DE01C901019660E870E00E946908BC0175
:1003E0008091DF019091E0016817790741F0235A6D
:1003F0003E4FF90140837093DE016093DD01FF9170
:10040000EF91BF91AF919F918F917F916F915F918C
:100410004F913F912F910F900FBE0F901F90189505
:100420008F92AF92CF92DF92EF92FF920F931F9332
:10043000DF93CF93CDB7DEB7FC0182E491E09183E7
:100440008083738362835583448337832683118734
:100450000087F386E286D586C486A68687868D8544
:10046000808B8E85818B8F85828BCF91DF911F91C1
:100470000F91FF90EF90DF90CF90AF908F90089505
:100480008F92AF92CF92DF92EF92FF920F931F93D2
:10049000DF93CF93CDB7DEB7FC0182E491E0918387
:1004A00080837383628355834483378326831187D4
:1004B0000087F386E286D586C486A68687868D85E4
:1004C000808B8E85818B8F85828BCF91DF911F9161
:1004D0000F91FF90EF90DF90CF90AF908F900895A5
:1004E0008F929F92AF92BF92DF92EF92FF920F9303
:1004F0001F93CF93DF93EC017A018B01413482E4A7
:1005000058078FE0680780E078070CF07FC060E84C
:1005100074E88EE190E0A80197010E949E08CA014C
:10052000B901615070408040904022E030E040E0EE
:1005300050E00E949E0849015A01A50194012095AE
:1005400030954095509594E0220F331F441F551F5E
:100550009A95D1F760E074E284EF90E00E949E08E3
:10056000CA01B9012FEF30E040E050E00E944A0894
:10057000A80197010E949E08C90121503F4F121601
:1005800013061CF4D82EDA9403C0DD24D394D81AB1
:1005900060E079E08DE390E0A80197010E949E0859
:1005A000CA01B901615070408040904022E030E0C3
:1005B00040E050E00E949E0820953095409550956F
:1005C00083E0220F331F441F551F8A95D1F760E047
:1005D00074E284EF90E00E949E08CA01B9012FEFF7
:1005E00030E040E050E00E944A08A80197010E94D4
:1005F0009E08C90121503F4F121613061CF4282FE4
:10060000215002C021E0281B2D1500F5E885F98551
:1006100081E090E00A8802C0880F991F0A94E2F7EF
:10062000808360E079E08DE390E0A80197010E946B
:100630009E08CA01B901615070408040904022E09C
:1006400030E040E050E00E949E0804C0E885F98553
:1006500010829401EC81FD813083EE81FF81208343
:10066000EA85FB85808121E030E0A9010E8402C08B
:10067000440F551F0A94E2F7842B8083EA85FB859B
:100680008081A9010F8402C0440F551F0A94E2F72C
:10069000842B8083EA85FB858081088802C0220F35
:1006A000331F0A94E2F7822B8083DF91CF911F9151
:1006B0000F91FF90EF90DF90BF90AF909F908F9041
:1006C0000895FC0122813381F901E058FF4F8081B8
:1006D000918180589F4F2E573F4FF90120813181E2
:1006E000821B930B60E870E00E9469080895DC01AA
:1006F00012962D913C911397F901EE57FF4F80818F
:100700009181D901A058BF4F4D915C911197481725
:10071000590719F42FEF3FEF0CC0280F391FD901EB
:100720002C91019660E870E00E94690891838083B3
:1007300030E0C9010895DC0112968D919C911397C8
:10074000FC01E058FF4F8E579F4FDC018D919C912B
:100750001197918380830895FC01A085B18521893B
:100760008C9190E0022E02C0959587950A94E2F74D
:1007700080FFF6CF0484F585E02D6083089582E440
:1007800091E09093E2018093E1018DE591E09093F7
:10079000E4018093E30185EC90E09093E60180937F
:1007A000E50184EC90E09093E8018093E70180EC10
:1007B00090E09093EA018093E90181EC90E09093BE
:1007C000EC018093EB0186EC90E09093EE01809336
:1007D000ED0184E08093EF0183E08093F00187E0F6
:1007E0008093F10185E08093F20181E08093F30131
:1007F00008950F931F93CF93DF93EC018B0109C0F2
:100800000F5F1F4FE881F9810190F081E02DCE014B
:100810000995F8016081662399F7DF91CF911F91C7
:100820000F910895EF92FF920F931F93CF93DF9351
:10083000EC018B017A010DC0F80161918F01E88113
:10084000F9810190F081E02DCE0109950894E1082D
:10085000F108E114F10481F7DF91CF911F910F911D
:10086000FF90EF900895DC01ED91FC910190F081F3
:10087000E02D099508950E9433040895DC01ED915F
:10088000FC910280F381E02D09950895CF93DF93C9
:10089000EC016DE00E943304CE016AE00E94330453
:1008A000DF91CF910895CF93DF93EC010E94330441
:1008B000CE010E944604DF91CF910895CF93DF933C
:1008C000EC010E943E04CE010E944604DF91CF91CC
:1008D0000895CF93DF93EC010E943304CE010E9470
:1008E0004604DF91CF9108952F923F924F925F92ED
:1008F0006F927F928F929F92AF92BF92CF92DF9230
:10090000EF92FF920F931F93DF93CF93CDB7DEB794
:10091000A2970FB6F894DEBF0FBECDBF2C015A01CF
:100920006B01411551056105710521F460E30E94D9
:1009300033044CC0EE24FF248701622E77248824E0
:1009400099241E010894211C311CC1018E0D9F1D8C
:100950009AA389A3C601B501A40193010E947C0852
:10096000E9A1FAA160830894E11CF11C011D111D8D
:10097000C601B501A40193010E947C08A22EB32EEA
:10098000C42ED52EA114B104C104D104F1F6D801AE
:10099000C7010197A109B109280E391E12C0089498
:1009A000E108F10801091109F10160816A3010F4D0
:1009B000605D01C0695CC2010E9433040894210893
:1009C0003108E114F1040105110549F7A2960FB6AB
:1009D000F894DEBF0FBECDBFCF91DF911F910F9175
:1009E000FF90EF90DF90CF90BF90AF909F908F904F
:1009F0007F906F905F904F903F902F9008952AE0E6
:100A00000E9474040895CF93DF93EC010E94FF04C9
:100A1000CE010E944604DF91CF910895AB0160E0C2
:100A200070E00E94FF040895CF93DF93EC01AB01C7
:100A300060E070E00E94FF04CE010E944604DF9156
:100A4000CF910895EF92FF920F931F93CF93DF936F
:100A5000EC017A018B0177FF0BC06DE20E94330439
:100A600010950095F094E094E11CF11C011D111DFE
:100A7000CE01B801A7012AE00E947404DF91CF9152
:100A80001F910F91FF90EF900895CF93DF93EC01AA
:100A90000E942205CE010E944604DF91CF91089565
:100AA0009B01A901662757FD6095762F0E942205BC
:100AB0000895CF93DF93EC01CB01AC01662757FD7E
:100AC0006095762FCE010E942205CE010E94460439
:100AD000DF91CF9108952115310521F4642F0E94F3
:100AE000330408952A30310519F40E94220508952F
:100AF0000E9474040895CF93DF93EC010E946B056C
:100B0000CE010E944604DF91CF9108958F929F926B
:100B1000AF92BF92CF92DF92EF92FF920F931F930B
:100B2000CF93DF93EC016A017B01122FCB01BA0155
:100B300020E030E040E050E00E949806882344F432
:100B4000CE016DE20E943304F7FAF094F7F8F094C6
:100B500000E050E040E030E02FE311C0DA01F9019D
:100B60006B2F742F8F2F922F20E030E040E251E462
:100B70000E949C06562F472F382F292F0F5F0117F1
:100B800068F3C701B601DA01F9012B2F342F4F2F7B
:100B90005E2F0E9434067B01082FA92E7F2D0E9414
:100BA0000907B62ED72E882EC92ECE014B2D5D2DCE
:100BB000682D7C2D0E94FF04112329F0CE0168E4EA
:100BC00071E00E943E046B2D7D2D882D9C2D0E948E
:100BD00035079B01AC016E2D7F2D802F9A2D0E9431
:100BE000330623C020E030E040E251E40E94E707F2
:100BF000F62EC72E082FE92E0E9404074B01AA24C7
:100C000097FCA094BA2CCE01B501A4010E94220544
:100C1000C501B4010E9437079B01AC016F2D7C2DEB
:100C2000802F9E2D0E94330611501123D9F6DF919B
:100C3000CF911F910F91FF90EF90DF90CF90BF90D9
:100C4000AF909F908F90089522E00E9486050895AE
:100C5000CF93DF93EC010E942406CE010E9446044C
:100C6000DF91CF9108955058BB27AA270ED075C1A8
:100C700066D130F06BD120F031F49F3F11F41EF4B7
:100C80005BC10EF4E095E7FB51C1E92F77D180F30A
:100C9000BA17620773078407950718F071F49EF579
:100CA0008FC10EF4E0950B2EBA2FA02D0B01B901C8
:100CB00090010C01CA01A0011124FF27591B99F0D2
:100CC000593F50F4503E68F11A16F040A22F232FDE
:100CD000342F4427585FF3CF469537952795A7952E
:100CE000F0405395C9F77EF41F16BA0B620B730BD5
:100CF000840BBAF09150A1F0FF0FBB1F661F771F46
:100D0000881FC2F70EC0BA0F621F731F841F48F4FA
:100D1000879577956795B795F7959E3F08F0B3CF80
:100D20009395880F08F09927EE0F9795879508956A
:100D3000D9D008F481E008950CD00FC107D140F05C
:100D4000FED030F021F45F3F19F0F0C0511139C1ED
:100D5000F3C014D198F39923C9F35523B1F3951B2C
:100D6000550BBB27AA2762177307840738F09F5FCC
:100D70005F4F220F331F441FAA1FA9F333D00E2E3B
:100D80003AF0E0E830D091505040E695001CCAF7A8
:100D900029D0FE2F27D0660F771F881FBB1F26176D
:100DA00037074807AB07B0E809F0BB0B802DBF0140
:100DB000FF2793585F4F2AF09E3F510568F0B6C059
:100DC00000C15F3FECF3983EDCF38695779567951D
:100DD000B795F7959F5FC9F7880F911D96958795F1
:100DE00097F90895E1E0660F771F881FBB1F621710
:100DF00073078407BA0720F0621B730B840BBA0BCE
:100E0000EE1F88F7E095089504D06894B111D9C019
:100E10000895BCD088F09F5790F0B92F9927B7510B
:100E2000A0F0D1F0660F771F881F991F1AF0BA95AE
:100E3000C9F712C0B13081F0C3D0B1E00895C0C08D
:100E4000672F782F8827B85F39F0B93FCCF38695A4
:100E500077956795B395D9F73EF490958095709501
:100E600061957F4F8F4F9F4F0895E89409C097FB7E
:100E70003EF490958095709561957F4F8F4F9F4F71
:100E80009923A9F0F92F96E9BB279395F6958795B5
:100E900077956795B795F111F8CFFAF4BB0F11F478
:100EA00060FF1BC06F5F7F4F8F4F9F4F16C088231F
:100EB00011F096E911C0772321F09EE8872F762F55
:100EC00005C0662371F096E8862F70E060E02AF096
:100ED0009A95660F771F881FDAF7880F9695879582
:100EE00097F90895990F0008550FAA0BE0E8FEEF57
:100EF00016161706E807F907C0F012161306E407DE
:100F0000F50798F0621B730B840B950B39F40A26D6
:100F100061F0232B242B252B21F408950A2609F4B4
:100F2000A140A6958FEF811D811D089597F99F67B8
:100F300080E870E060E008959FEF80EC0895002461
:100F40000A941616170618060906089500240A942E
:100F500012161306140605060895092E0394000CB4
:100F600011F4882352F0BB0F40F4BF2B11F460FF43
:100F700004C06F5F7F4F8F4F9F4F089557FD90586C
:100F8000440F551F59F05F3F71F04795880F97FB4D
:100F9000991F61F09F3F79F0879508951216130607
:100FA0001406551FF2CF4695F1DF08C01616170636
:100FB0001806991FF1CF869571056105089408956B
:100FC000E894BB2766277727CB0197F908950BD0C4
:100FD000C4CFB5DF28F0BADF18F0952309F0A6CF0B
:100FE000ABCF1124EECFCADFA0F3959FD1F3950FBD
:100FF00050E0551F629FF001729FBB27F00DB11D9D
:10100000639FAA27F00DB11DAA1F649F6627B00D2C
:10101000A11D661F829F2227B00DA11D621F739F15
:10102000B00DA11D621F839FA00D611D221F749F23
:101030003327A00D611D231F849F600D211D822F6A
:10104000762F6A2F11249F5750408AF0E1F08823B1
:101050004AF0EE0FFF1FBB1F661F771F881F9150BE
:101060005040A9F79E3F510570F060CFAACF5F3F77
:10107000ECF3983EDCF3869577956795B795F795F1
:10108000E7959F5FC1F7FE2B880F911D9695879579
:1010900097F90895629FD001739FF001829FE00D40
:1010A000F11D649FE00DF11D929FF00D839FF00DE7
:1010B000749FF00D659FF00D9927729FB00DE11D93
:1010C000F91F639FB00DE11DF91FBD01CF01112470
:1010D000089597FB092E07260AD077FD04D049D042
:1010E00006D000201AF4709561957F4F0895F6F7A9
:1010F000909581959F4F0895A1E21A2EAA1BBB1BC4
:10110000FD010DC0AA1FBB1FEE1FFF1FA217B307D3
:10111000E407F50720F0A21BB30BE40BF50B661FE9
:10112000771F881F991F1A9469F7609570958095AD
:1011300090959B01AC01BD01CF01089597FB092E4D
:1011400005260ED057FD04D0D7DF0AD0001C38F496
:1011500050954095309521953F4F4F4F5F4F0895E3
:10116000F6F790958095709561957F4F8F4F9F4FC3
:101170000895AA1BBB1B51E107C0AA1FBB1FA617DE
:10118000B70710F0A61BB70B881F991F5A95A9F730
:1011900080959095BC01CD010895EE0FFF1F05903D
:0A11A000F491E02D0994F894FFCFBC
:1011AA002C206465633A20002C206865783A200078
:1011BA002C206F63743A20002C2062696E3A20005A
:1011CA004153434949205461626C65207E2043683B
:1011DA0061726163746572204D61700021000000C4
:1011EA000000AC03F90312042E00000000005F00A7
:0411FA00F9031204DF
:00000001FF
